:100000006DC09DC09CC04FC89AC099C098C04DC7D4
:1000100096C095C094C093C092C091C0C2C68FC014
:100020008EC0EEC6EDC68BC08AC089C088C087C0AE
:1000300086C085C004010101000500000000000524
:10004000010000000003000101040001000105009F
:1000500000000000030100010501010100000A0980
:1000600011100F0E0D0C0B0708000102030405060A
:10007000020001010104010101000101030100016D
:100080000300000103000000020001020001020160
:10009000000300000102010104010101000101044B
:1000A0000001000003000000030101000401000042
:1000B000010708000102030405060A0911100F0ECA
:1000C0000D0C0B02FF0103000408050607070A0BCD
:1000D000090C110D100E0F0FFF001D0F11241FBE74
:1000E000CFEFCDBFDFE3DEBF8091400080934000C3
:1000F000811105C098ED21E094BF209341008CBB95
:100100001EE3A0E0BEE3E8EFFFE102C005900D9220
:10011000A230B107D9F72EE3A2E0BEE301C01D92E1
:10012000A03FB207E1F710E0CEE6D0E003C0219790
:10013000FE0124DFCD36D107D1F7D0D731CF60CF44
:10014000E091DB3EF091DC3E8E179F0798F53091F1
:10015000E23E332361F0639FB0011124672F349F87
:10016000A0011124452F329F90011124232F30919B
:10017000E83EE091E33EF091E43E5091E53E3513D8
:100180001AC0DC01AA0FBB1F8A0F9B1F8E0F9F1F77
:10019000E091E53EE80FF92FF11D6083E091E63E26
:1001A000E80FF92FF11D40833091E73E830F911D39
:1001B000FC0120830895880F991F880F991F8E0FC7
:1001C0009F1FFC01E30FF11D1082E2CF0F931F93DD
:1001D000AB01BC018FB7F8940091D53E1091D63E8B
:1001E0002091D73E3091D83E8FBFEFB7F8948091E1
:1001F000D53E9091D63EA091D73EB091D83EEFBF6C
:10020000801B910BA20BB30B84179507A607B707AA
:1002100060F31F910F910895CF92DF92EF92FF92BA
:100220009FB7F89488E08093840A80918E0A81FFBA
:10023000FCCF80918D0AE091A20AF091A30AC090B0
:10024000D13ED090D23EE090D33EF090D43E9FBFBE
:1002500080FF08C0E730F10528F48FEFC81AD80AEC
:10026000E80AF80A9F0136952795CF01820F911D64
:10027000E22FE695E695322F32953F70E31BFF0B98
:1002800027FD3196E80FF91FA0E3B3E0A70196011F
:100290006BDEF694E794D794C794C60ED71EE81E7B
:1002A000F91EC701B6016E0F7F1F811D911DFF90C2
:1002B000EF90DF90CF9008950F931F93CF93DF932C
:1002C000CDB7DEB72797CDBFDEBF8091DD3E9091E1
:1002D000DE3E89839A838091E33E9091E43E892BB0
:1002E00009F469C08091E13E8C300CF064C094DF69
:1002F0000091E93E1091EA3E2091EB3E3091EC3EB8
:10030000AB01BC01401B510B620B730B8091DF3EB4
:100310009091E03EB0E0A0E0481759076A077B07DC
:1003200030F3F894A091E33EB091E43EFD013196A4
:100330008C918F83A091ED3EB091EE3E9C91809187
:10034000EF3E982B9E839C91809589238D838D8190
:100350008C8388E08B835E816D814F813B812C8112
:1003600089819A815C9347FD252F3A95000000C052
:100370002C93262F41F0441F00C000006C9301D045
:10038000F1CF00C0089538E0419100006C93000067
:1003900000C000C0019731F74F833B832C838983D2
:1003A0009A83789439DF6093E93E7093EA3E8093B4
:1003B000EB3E9093EC3E2796CDBFDEBFDF91CF9111
:1003C0001F910F910895CF93DF93FC0180913C3EE4
:1003D00090913D3E309759F410920A0682E090E0E9
:1003E00080933E3E90933F3EDF91CF9108952485C8
:1003F00024FD05C0228133812817390721F001909F
:10040000F081E02DE7CFE093403EF093413EC0E025
:10041000D6E085899FE3882319F0928592959F7095
:100420008385258130E02EA33FA3268130E02AA7D3
:100430003BA78B31E8F48C5F8D838185282F2F704B
:1004400020612A83288D2360288F278130852A8F79
:100450003B8F9C8F92859F70998382958F70898F37
:1004600081E88883848582FD05C081E08887BCCFD0
:100470008FE1E2CF81E08987B7CF1F93CF93DF93DE
:10048000FC01848580FD9EC083FF9CC0877F84879C
:10049000C585D68595897689911198C01781308553
:1004A000632F607CC11522E0D20718F1CE018F5F67
:1004B00091408430910508F479C0228120FF05C065
:1004C000969587955FEFBAEF0AC0813021E09207D9
:1004D00020F0605CCE018F5E924051E0B6E0A12F2B
:1004E000A295AF70432F4F7032953F70232F23702A
:1004F0003AC08FEF91E08C1B9D0B8430910508F47E
:1005000055C0228120FF03C096958795E6CF8130A4
:1005100021E09207B8F26034A8F260548FE091E0D5
:100520008C1B9D0BCFCF352F320F343030F48F5CC6
:100530009109232F803D9105B0F78631910538F55B
:10054000403128F0322F350F343030F1451B8230E6
:10055000910528F5A03138F0450F403128F1250FDD
:10056000243068F54B1B8230910520F7A295A07FBF
:100570002295207F462B242B1F70A12B322F2A2F50
:10058000278330877B30D8F47F5F768B1BC0450F85
:100590004031C0F64597D1CF4B1B232FD8CFA50FA5
:1005A000A031D0F60297D3CFAB1BDDCFC787D08B5E
:1005B000848582FFB3C080E8168A858B03C084855A
:1005C00081608487DF91CF911F910895478550897D
:1005D000C41BD50B90FF07C0CB36DF4F9CF47430A3
:1005E00098F280E0E9CF91FF0FC01C161D0654F071
:1005F000CA36DF4F0CF48CC041505109703120F2E3
:100600004787508B84E01BC092FF1CC0CA368FEF17
:10061000D8070CF47DC0A189B289CA17DB070CF09A
:100620007BC04B5651404B325140D8F6CF3F8FEFF5
:10063000D8070CF46FC088E022970CF4A5CF98136C
:10064000BBCFA2CF93FF0EC0D7FDDCCFA189B2896B
:10065000CA17DB070CF060C0703108F495CF4F5F0C
:100660005F4FCECF94FF08C0733080F44189528928
:10067000C417D5073CF288CF95FF0AC0733010F637
:10068000418952894C175D070CF07ECF80E4D7CFAB
:1006900096FF0BC0793C08F0A4CF43895489C41756
:1006A000D5070CF071CF80E2CACF97FF6DCF84855C
:1006B00082FD1EC0A189B28980E4AC17BD070CF091
:1006C00084E010923A3E10923B3ECF3F2FEFD2078C
:1006D0008CF4415051094787508B2091140630917A
:1006E0001506215031092093140630931506A7CF23
:1006F000892FEBCF22970CF4A2CF4F5F5F4F478734
:10070000508B20911406309115062F5F3F4FEBCF91
:1007100081E095CF82E093CF80E191CF84E04CCF10
:10072000813041F020F0823049F060E001C06EE19C
:1007300070E002C060E07EE180E0089560E070E07B
:100740008EE10895CF93C82F862FEADF472F282FF9
:100750008C2F90E0CF91F4CCEF92FF920F931F93E8
:10076000CF93DF93082FF62EE42E122FD0E0C0E0B7
:100770002E2D4F2D602FCE01E3DC2196C231D10505
:10078000B9F7112339F0DF91CF911F910F91FF90AD
:10079000EF9092CDDF91CF911F910F91FF90EF904D
:1007A0000895962F672F242F482F892FD5CF0F9389
:1007B0001F93CF93DF93EC01162F042F6091D19FED
:1007C0007091D29F8091D39F40E0EBDFCE0169E032
:1007D00070E065DBEC01202F40E0612FB1DC202FC1
:1007E00040E0612F81E190E08C1B9D0BA9DC64DD72
:1007F00084E6DF91CF911F910F9108950F931F937E
:10080000CF93DF93162F042F64E170E048DB282F8D
:100810008B3010F024E1281B220F30E0F901ED535A
:10082000FF4FD491F901EC53FF4FC4916091D19FD8
:100830007091D29F8091D39F40E0B3DF20E0402FA2
:10084000612F8D2F90E07CDCCF3F31F020E0402FF6
:10085000612F8C2F90E074DC2FDD84E6DF91CF9147
:100860001F910F910895FF920F931F93CF93DF93E2
:10087000F82EC92FD62F6091D19F7091D29F809171
:10088000D39F40E08EDF0F2D1C2FC0E0CD1739F035
:10089000F80161918F018C2F55DFCF5FF7CFDF918A
:1008A000CF911F910F91FF9007CDE4E4FEE330E07C
:1008B00020E080E041E050E09589907639F0BA017F
:1008C000022E01C0660F0A94EAF7862B2F5F3F4F76
:1008D00077962630310581F70895EF92FF920F93B6
:1008E0001F93CF93DF93E1DFC82F8770C9F0E12C0E
:1008F000C0FF02C024E1E22EF12CC2FF02C094E14D
:10090000F92ED0E0C1FDD4E110E000E02E2D4F2DF6
:100910006D2FC80115DC0F5F1F4F09301105B1F7AE
:100920008C2F8873B1F0F12CC5FF02C084E1F82E42
:1009300004E1C3FF00E010E0C4FD14E1C9E0D0E031
:100940002F2D402F612FCE01FBDB2196C231D10527
:10095000B9F7DF91CF911F910F91FF90EF90ACCC41
:100960002091003E3091013EC9019695879520FD6A
:1009700007C08093003E9093013E8091003E089511
:1009800024EB9227F6CF0F931F93CF93DF93162F6D
:10099000082FEC01E5DF83708330E1F389938C2F1E
:1009A000801B8117B8F3DF91CF911F910F910895AC
:1009B0008091080483FB882780F9089594E08111D1
:1009C00016C0909326049091200492FD0AC09FB710
:1009D000F89481110FC080913204877F8093320494
:1009E0009FBF8091010A8B7F8093010A08959093A5
:1009F0002504E9CF809132048860F0CF8C30F0F488
:100A000090E0FC01E451F04620812F3FB9F0FC0159
:100A1000E052F046E08130E2E39FF0011124FC5FF8
:100A2000613069F421838C529046DC018C91E80F8F
:100A3000F11D8089613029F08860808B08952283C0
:100A4000F2CF877FFACF8EEF809352011092CE3E85
:100A500080915000897F8460809350008DE0809366
:100A6000130480E0ABDF809100068E7F8093000648
:100A7000C8ECDFE961E08991C1DF8FE9CE3CD8079E
:100A8000C9F780915000816080935000889588ED6F
:100A900091E084BF90930001FFCF60317105810523
:100AA000910538F093CBE7E8F3E13197F1F700C017
:100AB00000006150710981099109A8F70895DF923A
:100AC000EF92FF920F931F93CF93DF93D62FD42EE5
:100AD000C0E0E82EF12C87010C0F111DC7FD1A95FF
:100AE0000F541F4FF80184912EE14D2D6D2F90E092
:100AF00027DBE2DB6DE270E080E090E067DB30DF77
:100B00008770823008F039C02BDF8F77682F70E054
:100B100090E080E0C2DF24DF80FF2FC0CC2369F1AA
:100B2000F801849120E040E060E090E009DBC4DB64
:100B300068E270E080E090E049DBC15087010C0F73
:100B4000111D0F541F4FF80184912EE14D2D6D2F73
:100B500090E0F6DAB1DB6EE170E080E090E036DB49
:100B6000F801849120E040E060E090E0E9DAA4DB65
:100B700062E370E080E090E029DBCF5FC93009F0EC
:100B8000AACFDF91CF911F910F91FF90EF90DF904F
:100B900008952F923F924F925F926F927F928F9221
:100BA0009F92AF92BF92CF92DF92EF92FF920F93FC
:100BB0001F93CF93DF93CDB7DEB72997CDBFDEBFAD
:100BC000562E442E9E012F5F3F4F7901275F3F4FE6
:100BD000F70147011192E217F307E1F7342C36943D
:100BE0003694252C2694269498E0C92ED12CA82E34
:100BF000B12CC5018F549F4F3C01F301EC0DFD1D3D
:100C0000849120E0442D652D90E09ADA21E0F701EF
:100C1000208752DB6CE170E080E090E0D7DAA0DE64
:100C2000837019F59DDE69E02ED9E92FF0E0D4013B
:100C3000AE0FBF1F8C918823C1F0EA0DFB1DEF544E
:100C4000FF4FE4910E2F10E020E0432D622DC801EC
:100C500077DA32DB6DE270E080E090E0B7DA20E036
:100C600040E060E0C8016CDA27DB31E0C31AD1084C
:100C700081E0E81AF1089FEFC916D90609F0BDCF47
:100C80002996CDBFDEBFDF91CF911F910F91FF90CD
:100C9000EF90DF90CF90BF90AF909F908F907F901C
:100CA0006F905F904F903F902F900895CF93DF9378
:100CB000EC0121E04EE16EE18EE14EDDBE0190E0FF
:100CC00080E0EBDE6091D19F7091D29F8091D39FA5
:100CD00041E067DD66E970E080E090E0DF91CF9170
:100CE00075CA6F927F928F92CF92DF92EF923B0103
:100CF000882E41E056DD62E370E080E090E066DA45
:100D0000C090D19FD090D29FE090D39F41E08E2D94
:100D1000B60147DD62E370E080E090E057DA41E041
:100D2000882DB3013EDD62E370E080E090E04EDAB2
:100D300041E08E2DB60135DD62E370E080E090E0A9
:100D4000EF90DF90CF908F907F906F903FCACF92BF
:100D5000DF92EF92CF938091D03E9091001489174B
:100D600079F0A0E0B4E1E0E0F0E10FB62281237079
:100D7000E9F7F8948C938DE984BF83E080830FBEFC
:100D8000C6E0C090B39FD090B49FE090B59F8E2DE9
:100D9000B601A7DFC150D9F7CF91EF90DF90CF9088
:100DA00008958F9381E080938D0A8FB78F93EF938F
:100DB000FF93E1EDFEE39F9368948FEF0DC0E894FD
:100DC00084819581805D9C4F84839583885E934068
:100DD00080F0848395838FEF9081981B919390810D
:100DE0009F4F919390819F4F919390819F4F9193AB
:100DF00036F39F91FF91EF918F918FBF8F9118954F
:100E00001F920F920FB60F9211242F933F934F937F
:100E10005F936F937F938F939F93AF93BF93CF9382
:100E2000DF93EF93FF93C0E0D6E0E091403EF09176
:100E3000413E3097F1F018823B8588899989228557
:100E40002F7002C0969587952A95E2F78587968739
:100E5000848588608487848582FF23C0848531FFF0
:100E60001BC08260848780E190E080933E3E909337
:100E70003F3EFF91EF91DF91CF91BF91AF919F9155
:100E80008F917F916F915F914F913F912F910F9033
:100E90000FBE0F901F9018958D7F848788E090E09B
:100EA000E4CF808191818FDAE4CF1F920F920FB649
:100EB0000F921124CF92DF92EF92FF922F933F93E4
:100EC0004F935F936F937F938F939F93AF93BF9352
:100ED000CF93DF93EF93FF9381E080935301809151
:100EE000CE3E882309F492C08FB7F894C090D53EC7
:100EF000D090D63EE090D73EF090D83E8FBF809104
:100F00003E3E90913F3E88719927892B09F49FC0FE
:100F100080913A3E90913B3E0097A1F020913E3E59
:100F200030913F3EAADA80913A3E90913B3E892B28
:100F300009F083C010923C3E10923D3E10923E3E1E
:100F400010923F3E8091023E9091033EC81AD90A0A
:100F500024E1C216D10408F459C044968093023E9D
:100F60009093033E80913E3E90913F3E892B09F045
:100F70004DC0E0E0F6E080913E3E90913F3E8979A1
:100F80009927892B09F042C08091423E9091433EBF
:100F9000DC0112962D913C91108E40EE20FD76C022
:100FA00023FF71C048E2408F46E8468F10821382CB
:100FB00043E04387332720933C3E30933D3EA0914E
:100FC0003A3EB0913B3E109709F463C082E08287BD
:100FD00084831F968D919C91509751962D913C91B1
:100FE0005297820F931F1A962C911A972F7002C056
:100FF000880F991F2A95E2F7848B958B84E090E007
:1010000080933E3E90933F3ECD01DDD9FF91EF911D
:10101000DF91CF91BF91AF919F918F917F916F9110
:101020005F914F913F912F91FF90EF90DF90CF9084
:101030000F900FBE0F901F90189582E080930A06C4
:1010400084E090E080933E3E90933F3E7BCF809142
:101050003E3E90913F3E029709F074CF10923E3E83
:1010600010923F3EC091423ED091433E209729F4DA
:1010700010923C3E10923D3E65CFCE01FED90990C4
:10108000D881C02DF3CF22FFC1CF48E2408F168E0A
:101090008DCF21E02287148221E030E020933E3E74
:1010A00030933F3EB2CF1F920F920FB60F92112492
:1010B0008F939F9388E0809309048091CF3E88238B
:1010C00031F088ED91E084BF90930001FFCF9F91B4
:1010D0008F910F900FBE0F901F901895CF93DF93B5
:1010E000CDB7DEB76E97CDBFDEBF88ED90E084BF91
:1010F00090936100E0E0F6E083E582838DE08583F4
:1011000080E2838381E08083109202028093030A4D
:101110009EEF9093260A9093270A9BE09093000AF3
:10112000E0E8FAE02DEF31E026A737A7118290E83A
:101130009283848781E18083789461E088E05EDC3B
:1011400061E089E05BDC61E085E058DC61E084E03F
:1011500055DC61E084E052DC62E08AE04FDC81E053
:101160002DDC809141018111FCCF81E0809347010A
:101170008091423E9091433E28EC3FE9E4E4FEE357
:10118000BEEC6B2EBFE97B2E04E010E044E0842E21
:1011900054E1E52EF12C6AE070E0A7E6CA2EA5E046
:1011A000DA2EB3E05B2E44EF342E50E5A52EB12CA1
:1011B000D9014D919D01912C4C3028F4A42FB0E021
:1011C000A454B0469C90FE3309F03AC1DC0100976C
:1011D00009F02DC11482CF011582968202831383F8
:1011E000992009F42DC18286E18AF28A638B748B7F
:1011F000C782D08651864091220650912306492904
:10120000409322065093230646EB5FE9A6E04A2E60
:1012100090FE06C0DA012C90A22DB0E0BC5F8C924B
:1012200096944A944F5F5F4F4110F2CF3286A18A65
:10123000B28A638B748B77966216730609F0B8CF07
:101240008093423E9093433E809100148093D03E21
:101250006CE0C62ED12C10E000E082DB8370B1F48C
:101260007FDB8F70F82E7CDB83702F2D220F4F2DAC
:10127000882309F4EEC020E040E0813009F0E9C0A5
:101280002F2D220F40E06F2DC8015AD70F5F1F4F3F
:101290000231110511F710D863E270E080E090E0B0
:1012A00095D7B1E0CB1AD108B1F66090D19F70907C
:1012B000D29F8090D39F41E0882DB30172DA6CE316
:1012C00070E080E090E082D745E060E080E0F7DB0E
:1012D00040E064E189E0F3DB60E570E080E090E00D
:1012E00075D740E06EE180E054DC4EE160E089E0DB
:1012F00050DC6CE370E080E090E068D7EE24E3948B
:10130000F12C9AE0592E26E0922E3EE6C32ED12CE7
:1013100040E5A42EB12C52E1452E21E0452D60E0A0
:10132000892D1ADAC601B701CED5072E000C880B1D
:10133000990BB3DB41E0882DB30133DAC501B70166
:10134000C2D5072E000C880B990BA7DB09DB642D97
:101350009AD5092F05DB837010E020E040E06EE1B4
:1013600041F020E044E160E0813019F024E140E008
:1013700064E1C801E5D6A0D767E370E080E090E0C3
:1013800025D720E040E060E0C801DAD695D76EE1CD
:1013900070E080E090E01AD7E6E09E0EFAE05F0E83
:1013A0002FEFE21AF20A38E19312B7CF21E04EE1B3
:1013B00060E082E1D1D968E572E080E090E006D794
:1013C00041E0882DB301EDD981E08093520199E18C
:1013D000909350018093CE3EA12CB12C650105E085
:1013E000202E512C412C6091CE9F6C8B8091CF9FF1
:1013F0008D8B9091D09F9E8B698F8A8F9B8F6C8FE6
:101400008D8F9E8FEFEFE20DEC3028F5F0E0E65F78
:10141000F54F09942BC04FC053C059C05BC08CC05E
:10142000A6C005C11CC14CC196C1D1C1DA014D9104
:101430005C91119741155105C9F7EA17FB0709F4AB
:10144000FFCFED93FC93119714964C914F5F44831B
:10145000C3CE60E019CF4AE060E0C201CFD9082FC7
:1014600010E0212C01151105B9F4ADC12CE330E0D9
:10147000C201B90114D58C018F31910520F0D90139
:10148000A81BB90B8D0121E040E060E0802F64D9FA
:10149000012B79F408EC10E0EFEF4E1A5E0AC80158
:1014A000012E000CAA0BBB0BA80EB91ECA1EDB1E18
:1014B00043C20EE1F0CF4AE060E0C20178D904C037
:1014C00040E06AE0C2019AD9082F10E0CBCF40E09B
:1014D0006AE0F3CF8091D03E877009F074C1C201F9
:1014E0006AE570E0DCD420E040E03EE18231910525
:1014F000A8F08432910578F020E048E034E18633AA
:10150000910560F02EE140E036E08834910530F03E
:10151000422D2EE102C020E048E030E062E170E0C0
:10152000BED48F549F4FFC018491632F90E008D666
:10153000C3D602E310E0B0CF8091D03E81FD43C11D
:10154000C20163E070E0ABD4182F20E040E060E01F
:1015500080E002D920E044E16AE0812F90E0F0D5FC
:101560001D5F1231B8F3A8D606E910E095CF80913F
:10157000D03E82FD28C1C20169E070E090D48C01A8
:1015800020E040E060E084E1E7D885E0E4EAFFE9BC
:10159000DE011B9601900D928A95E1F785E0E9EA5C
:1015A000FFE9DE01119601900D928A95E1F77E0127
:1015B000FBE0EF0EF11C9E012F5F3F4F2A8B3B8B10
:1015C000CE014096888B998BD8011996AF8BB88F36
:1015D000F70181917F01AA89BB899D90AA8BBB8B62
:1015E000EF89F88DE80FF11D87FDFA95CF0169E0CD
:1015F00070E069D48C011127F801E959FF4F8491FB
:10160000292D492D692D90E09BD5F801E25AFF4F15
:101610008491292D492D692D90E092D52889398909
:10162000E216F306A9F648D608E710E035CF809118
:10163000D03E80FDC8C0142D117020E040E060E075
:101640008AE08AD82FEF40E060E0812F90E078D5E3
:101650001E5F1231B8F330D604E610E01DCFC20190
:1016600069E070E01CD47C0120E040E060E080E0B4
:1016700073D8912C392C330C390CC70169E070E018
:101680000ED48C01FC01E959FF4F8491232D40E0D9
:10169000692D90E055D5F801E25AFF4FE491232DD2
:1016A00040E060E08E2F90E04BD593943FEFE31A3B
:1016B000F30A67E09612DECFFFD50BE410E0ECCE24
:1016C000C2016FE374E1EBD38C0120E040E060E005
:1016D00080E042D8C8010E31110558F465E070E091
:1016E000DED360FDB8CF20E040E060E08AE034D88F
:1016F000B2CF4E978F3EA3E19A0738F567E372E0C9
:10170000CED3E62E6FE370E0CAD3FF24F394F60E37
:1017100010E000E00E15A0F420E040E06AE0C8010F
:101720000FD50F5F1F4FF6CFC8010F5F1F4F20E08F
:1017300040E06AE005D588EF800F8F15A8F38BCFC6
:1017400009E010E081E190E0F2CF21E040E06EE1BD
:1017500080E002D881CF41E0882DB30122D868E52E
:1017600072E080E090E032D518E0F12E10E0EE2437
:10177000E394E10EE12FF0E0EC5CFF4F0491100FD9
:101780001F5FEE2D1E1781F0992493949E0EF0E0BA
:10179000EC5CFF4FE49186E990E0E11102C082EC3D
:1017A00091E084DAE92DEECF1E2D100F62EC71E08E
:1017B00080E090E00BD5FA94F110D9CF60EB74E0A3
:1017C00080E090E003D5239410E000E065CEC201F4
:1017D00069E070E064D38C0120E040E060E080E0EC
:1017E000BBD785E0EEEAFFE9DE01119601900D928C
:1017F0008A95E1F77801BDE0EB0EF11CFE01319610
:10180000EA8BFB8B9801285F3F4F2F8B388F09E0C5
:1018100010E0AA89BB899D90AA8BBB8BC701049756
:10182000B80151D389599F4FFC01849120E0492D83
:1018300060E090E085D4C701B80145D3825A9F4F3C
:10184000FC01849120E0492D60E090E079D4F1E042
:10185000EF1AF1082F89388DE216F306D1F62CD550
:1018600000E510E019CEF9ECEF16F10408F460C0C1
:1018700021EBE21624E0F20608F085C016D8F82E17
:1018800014D8D82E882301F1AFE4B3EC1197F1F707
:1018900000C00000F5CF93E041E039E12EEF409326
:1018A00052013093500180915000897F8460809371
:1018B0005000809150008160809350008895209363
:1018C0005201915061F7BFD8FF2009F49EC08FB735
:1018D000F8944091D53E5091D63E6091D73E70919C
:1018E000D83E8FBF8091003E9091013E9C012427FD
:1018F00035272093003E3093013E8417950731F43D
:1019000081EE9CEA8093003E9093013EB4E0FB168A
:1019100009F47BC1BF1508F448C0E1E0FE1609F4E4
:1019200076C0F2E0FF1609F4E7C0A12CB12C6501E6
:10193000512C412C0A501109101611060CF073C2DB
:10194000CCD78FE493EC0197F1F700C0000030D8BA
:10195000813081F362E370E080E090E037D4B2E35D
:10196000EB2EF12C25D881117ECFA7EAB1E6119795
:10197000F1F700C00000B5E0EB0EF11CE5EDEE164E
:10198000E7E0FE0679F76091CE9F7091CF9F80913E
:10199000D09F41E006D70CD881117DCF87EA91E630
:1019A0000197F1F700C00000F6CF28E0F21609F425
:1019B000A3C130E1F312B9CF41E0882DB301F1D6D4
:1019C00068E572E080E090E001D482E1E82ECC246A
:1019D000C394CD0CED2DF0E0E059FF4FF490DF0CF7
:1019E000D394EC2DDE1609F40EC2BB24B394BE0EC4
:1019F000F0E0E059FF4FE49186E990E0E11102C088
:101A000082EC91E053D9EB2DEDCF23948ECF8DE076
:101A100080931304F092CF3E68EC6A8BA1D7877055
:101A2000982EC82ED12C560188E0A80EB11C91101A
:101A300003C0A1E1AA2EB12CF7E03F2EF12CE12C3E
:101A40004E2C40E0882DB301ACD620E04EE160E0A2
:101A5000C60176D320E04EE160E0C50171D320E0FD
:101A600040E06EE1C7016CD3C7010896E11002C0E7
:101A700081E190E020E040E06EE162D31DD4512C82
:101A800095E0590E12D7882339F04914C9F0698DB1
:101A90007A8D8B8D26D92AC0A7EAB1E61197F1F786
:101AA00000C00000BA895B1658F3EFEFEE1AFE0A89
:101AB000F9E0EF16F10421F63A943110BFCFE7CFE9
:101AC000F4D6882339F087EA91E60197F1F700C050
:101AD0000000F6CF9A8994519A8B983209F09ECFE4
:101AE0008091D03E8E7F8093D03E31D988E0809324
:101AF00013041092CF3E19CF8DE08093130481E040
:101B00008093CF3E67E0CE0101963DD740E0882D1F
:101B1000B30147D6DE0111967D01D12CF701619109
:101B20007F018D2D0FD6D394F7E0DF12F7CFC4D30A
:101B300068EB7BE080E090E049D360E0CE01019665
:101B400092D6F12CEAE0CE2EB0D6E82EE11009C0F4
:101B5000ACD6E82E8FE493EC0197F1F700C00000BB
:101B6000F5CFBBD694E0E916E9F09E1590F0A1E020
:101B7000EA16E9F0B2E0EB16E9F0E12CD12C95D6AB
:101B80008823D1F08FE493EC0197F1F700C00000B7
:101B9000F6CFE0E1EE1671F0F0E2EF1641F028E04A
:101BA000E212EBCFEE24E394DD24D394E8CF72E08D
:101BB000E72EFACFE12CF8CFDD20D1F0E1E0F0E024
:101BC000EC0FFD1FEF0DF11D80818E1111C0F394FC
:101BD0006F2DCE01019647D664EF71E080E090E072
:101BE000F5D297E0F912B0CF8091D03E8B7F7BCFBA
:101BF000CA946C8D7D8D8E8D74D860E0CE01019677
:101C000032D6F12CC110A0CF71CF8DE08093130498
:101C100081E08093CF3E6AE0DE0111967D01CD0127
:101C2000B2D663E0962E5E2C57016701F6018191D2
:101C30006F0176D540E0B5D53FD360E971E080E033
:101C400090E0C4D241E0882DB301ABD568EC70E0E0
:101C500080E090E0BBD28C2D8E19891538F325D603
:101C6000D82ED11009C021D6D82E8FE493EC01973D
:101C7000F1F700C00000F5CF30D617D6882339F031
:101C8000AFE4B3EC1197F1F700C00000F6CFF50117
:101C900081915F01813011F130F0823031F16C8936
:101CA0007D898E89F7CEF2E0DF1619F020E1D2129D
:101CB000F6CF41E0882DB30174D564EF71E080E088
:101CC00090E084D28A2D8519891548F29394AAE070
:101CD0009A12AACF8091D03E8D7F05CF34E0D316E3
:101CE00041F368E0D612DBCFE4CF81E0D81609F3E8
:101CF00090E2D912D4CFDDCF8DE18093060680E14A
:101D00008093A00081E08093000610920106EFE02E
:101D1000F7E23197F1F700C0000080930806809148
:101D20000B0680FFFCCF209110063091110681E058
:101D300080930B06809100068E7F80930006032E11
:101D4000000C440B550B60E070E381E190E0F0D0B3
:101D50002037F7E13F0718F5213A6FE0360708F41E
:101D60004CC0205A3F40B90190E080E053E0660F3C
:101D7000771F881F991F5A95D1F720ED37E040E073
:101D800050E0B4D0CC24C394C20E86E08C1548F049
:101D900093E0B12C9C15A0F52AE0B22E31C049E0A9
:101DA000C42E39E1B32E20E040E060E080E0D4D4DE
:101DB000F12CE12CF701E959FF4F849120E04B2DE4
:101DC0006D2D90E0BDD1F701E25AFF4F849120E0E4
:101DD0004B2D6D2D90E0B4D1AFEFEA1AFA0AEC1456
:101DE00048F36AD268EB7BE080E090E0EFD121E03D
:101DF00040E060E080E0B0D498CDB12CCC24C39416
:101E000099E1D92ED0CFDC2CDF0C62EC71E080E0C0
:101E100090E0DCD1EA94E110DACD60EB74E080E090
:101E200090E0D4D182CDB1EAAB16BBEBBB06BDE0EE
:101E3000CB06D10408F4E6CA46CDEBEDFEE382E31F
:101E400090E084839583178284E09EE38087918766
:101E500016861786108A118A81E085878287138605
:101E600082E0848786E390E08283938382E190E03E
:101E70008083918384E0868384E294E0828B938BD9
:101E800088E0848B0895991B79E004C0991F961708
:101E900008F0961B881F7A95C9F780950895AA1BAC
:101EA000BB1B51E107C0AA1FBB1FA617B70710F045
:101EB000A61BB70B881F991F5A95A9F78095909577
:101EC000BC01CD01089597FB072E16F4009406D0AF
:101ED00077FD08D0E4DF07FC05D03EF490958195AE
:101EE0009F4F0895709561957F4F0895A1E21A2E36
:101EF000AA1BBB1BFD010DC0AA1FBB1FEE1FFF1FAE
:101F0000A217B307E407F50720F0A21BB30BE40BFD
:101F1000F50B661F771F881F991F1A9469F7609544
:101F20007095809590959B01AC01BD01CF010895FE
:101F3000052E97FB16F400940FD057FD05D0D6DF81
:101F400007FC02D046F408C0509540953095219585
:101F50003F4F4F4F5F4F08959095809570956195D5
:101F60007F4F8F4F9F4F08950FD0A59F900DB49F27
:101F7000900DA49F800D911D11240895EE0FFF1F59
:101F80000590F491E02D0994A29FB001B39FC00188
:101F9000A39F01D0B29F700D811D1124911D089542
:041FA000F894FFCFE3
:101FA4000001FF02FE1E121208081E1008030100A1
:101FB4001E00141516173130010204080000102009
:101FC400000000000001020307061E0000000000DC
:101FD40004050607030201000102030000000000DB
:101FE40001010101000000001020408008040201EA
:041FF40002040801DA
:021FF800E1AC5A
:00000001FF
