:1000000037C067C066C053C964C063C062C051C80E
:1000100060C05FC05EC05DC05CC05BC0C4C759C08B
:1000200058C0F2C7F1C755C054C053C052C051C0E8
:1000300050C04FC00708000102030405060A091159
:10004000100F0E0D0C0B0A0911100F0E0D0C0B07E3
:10005000080001020304050602FF0103000408056D
:100060000607070A0B090C110D100E0F0FFF320FB8
:1000700011241FBECFEFCDBFDFE3DEBF8091400074
:1000800080934000811105C098ED21E094BF20933A
:1000900041008CBB1EE3A0E0BEE3EAE7FFE102C043
:1000A00005900D92A230B107D9F72EE3A2E0BEE38E
:1000B00001C01D92AE3EB207E1F710E0C8E3D0E008
:1000C00003C02197FE0121DFC733D107D1F70AD939
:1000D0002ECF96CFE091DB3EF091DC3E8E179F074E
:1000E00098F53091E03E332361F0639FB001112415
:1000F000672F349FA0011124452F329F90011124B6
:10010000232F3091E63EE091E13EF091E23E5091A6
:10011000E33E35131AC0DC01AA0FBB1F8A0F9B1FD9
:100120008E0F9F1FE091E33EE80FF92FF11D6083D2
:10013000E091E43EE80FF92FF11D40833091E53E58
:10014000830F911DFC0120830895880F991F880F4C
:10015000991F8E0F9F1FFC01E30FF11D1082E2CF4C
:100160000F931F93AB01BC018FB7F8940091D43E5D
:100170001091D53E2091D63E3091D73E8FBFEFB73C
:10018000F8948091D43E9091D53EA091D63EB09106
:10019000D73EEFBF801B910BA20BB30B84179507C3
:1001A000A607B70760F31F910F9108959FB7F894C2
:1001B00088E08093840A80918E0A81FFFCCF809131
:1001C0008D0AE091A20AF091A30A2091D03E3091CD
:1001D000D13E4091D23E5091D33E9FBF80FF07C099
:1001E000E730F10520F42F5F3F4F4F4F5F4FAEEFE9
:1001F000B1E081DE6E0F7F1F811D911D660F771F9D
:10020000881F991F08950F931F93CF93DF93CDB746
:10021000DEB72797CDBFDEBF8091E13E9091E23EF1
:10022000892B09F463C08091DF3E8C300CF05EC0F6
:10023000BDDF0091E73E1091E83E2091E93E30910C
:10024000EA3E601B710B820B930B623371058105D3
:10025000910570F3F8948091DD3E9091DE3E8983A4
:100260009A83A091E13EB091E23EFD0131968C91DE
:100270008F83A091EB3EB091EC3E9C918091ED3E3E
:10028000982B9E839C91809589238D838D818C836F
:1002900088E08B835E816D814F813B812C818981D8
:1002A0009A815C93000047FD252F3A952C9300001E
:1002B000262F39F0441F00C000006C9300C000C01E
:1002C000F0CF38E041916C9300C0019751F74F8314
:1002D0003B832C8389839A83789468DF6093E73E1D
:1002E0007093E83E8093E93E9093EA3E2796CDBF17
:1002F000DEBFDF91CF911F910F910895CF93DF93D0
:10030000FC0180913D3E90913E3E309759F4109211
:100310000A0682E090E080933F3E9093403EDF915A
:10032000CF910895248524FD05C0228133812817AB
:10033000390721F00190F081E02DE7CFE093413EB5
:10034000F093423EC0E0D6E085899FE3882319F010
:10035000928592959F708385258130E02EA33FA3DF
:10036000268130E02AA73BA78B31E8F48C5F8D8390
:100370008185282F2F7020612A83288D2360288F64
:10038000278130852A8F3B8F9C8F92859F70998320
:1003900082958F70898F81E88883848582FD05C06E
:1003A00081E08887BCCF8FE1E2CF81E08987B7CF3A
:1003B0001F93CF93DF93FC01848580FD9EC083FF54
:1003C0009CC0877F8487C585D6859589768991115C
:1003D00098C017813085632F607CC11522E0D20759
:1003E00018F1CE018F5F91408430910508F479C0F7
:1003F000228120FF05C0969587955FEFBAEF0AC06E
:10040000813021E0920720F0605CCE018F5E924047
:1004100051E0B6E0A12FA295AF70432F4F703295F7
:100420003F70232F23703AC08FEF91E08C1B9D0B00
:100430008430910508F455C0228120FF03C09695B1
:100440008795E6CF813021E09207B8F26034A8F2B8
:1004500060548FE091E08C1B9D0BCFCF352F320F76
:10046000343030F48F5C9109232F803D9105B0F733
:100470008631910538F5403128F0322F350F343070
:1004800030F1451B8230910528F5A03138F0450F39
:10049000403128F1250F243068F54B1B823091053F
:1004A00020F7A295A07F2295207F462B242B1F703A
:1004B000A12B322F2A2F278330877B30D8F47F5F00
:1004C000768B1BC0450F4031C0F64597D1CF4B1BF3
:1004D000232FD8CFA50FA031D0F60297D3CFAB1BD7
:1004E000DDCFC787D08B848582FFB3C080E8168AB2
:1004F000858B03C0848581608487DF91CF911F91B4
:10050000089547855089C41BD50B90FF07C0CB3693
:10051000DF4F9CF4743098F280E0E9CF91FF0FC078
:100520001C161D0654F0CA36DF4F0CF48CC0415027
:100530005109703120F24787508B84E01BC092FF35
:100540001CC0CA368FEFD8070CF47DC0A189B289D0
:10055000CA17DB070CF07BC04B5651404B32514061
:10056000D8F6CF3F8FEFD8070CF46FC088E0229702
:100570000CF4A5CF9813BBCFA2CF93FF0EC0D7FD2D
:10058000DCCFA189B289CA17DB070CF060C07031DB
:1005900008F495CF4F5F5F4FCECF94FF08C0733004
:1005A00080F441895289C417D5073CF288CF95FF62
:1005B0000AC0733010F6418952894C175D070CF060
:1005C0007ECF80E4D7CF96FF0BC0793C08F0A4CF54
:1005D00043895489C417D5070CF071CF80E2CACF84
:1005E00097FF6DCF848582FD1EC0A189B28980E40A
:1005F000AC17BD070CF084E010923B3E10923C3EDD
:10060000CF3F2FEFD2078CF4415051094787508BD1
:1006100020911406309115062150310920931406BB
:1006200030931506A7CF892FEBCF22970CF4A2CFDA
:100630004F5F5F4F4787508B20911406309115060E
:100640002F5F3F4FEBCF81E095CF82E093CF80E1EA
:1006500091CF84E04CCF813041F020F0823049F0DE
:1006600060E001C06EE170E002C060E07EE180E029
:10067000089560E070E08EE10895CF93C82F862F33
:10068000EADF472F282F8C2F90E0CF9123CD8823AE
:1006900019F090E008961ECD81E190E0FCCFFF922A
:1006A0000F931F93CF93DF93182F062FF42EC9E0DB
:1006B000D0E02F2D402F612FCE010CDD2196C231CD
:1006C000D105B9F7DF91CF911F910F91FF90089558
:1006D000EF92FF921F93CF93DF93C42F462F811188
:1006E00016C0162FD52FF12CE12C212F4D2F6C2F5A
:1006F000C701F0DC8FEFE81AF80A89E0E816F10488
:10070000A1F7DF91CF911F91FF90EF900895652F92
:100710008C2FDF91CF911F91FF90EF90C0CFDF9290
:10072000EF92FF920F931F93CF93DF93D82ED62F84
:10073000C72FE42E4091539F5091549F6091559F35
:10074000C7DF0D2F1C2FF12CD0E0C0E0CE15DF0548
:1007500079F0F80181918F017EDF472F282FD1108A
:1007600004C0CE01B7DC2196F1CF8C2F90DFFBCFF8
:10077000DF91CF911F910F91FF90EF90DF9043CDCC
:1007800088E0809313041092023E08958DE08093D8
:10079000130481E08093023E0895EF92FF920F933D
:1007A0001F93CF93DF93082FF62EE42E122FD0E065
:1007B000C0E02E2D4F2D602FCE018CDC2196C23152
:1007C000D105B9F7112339F0DF91CF911F910F9126
:1007D000FF90EF9018CDDF91CF911F910F91FF9077
:1007E000EF900895962F672F242F482F892FD5CF6C
:1007F0000F931F93CF93DF93EC01162F042F60917B
:10080000539F7091549F8091559F40E0EBDFCE0144
:1008100069E070E049DBEC01202F40E0612F5ADCF9
:10082000202F40E0612F81E190E08C1B9D0B52DC7A
:10083000EADC84E6DF91CF911F910F9108950F9329
:100840001F93CF93DF93162F042F64E170E02CDB0E
:10085000282F8B3010F024E1281B220F30E0F90103
:10086000E85AFF4FD491F901E75AFF4FC4916091C4
:10087000539F7091549F8091559F40E0B3DF20E0DB
:10088000402F612F8D2F90E025DCCF3F31F020E00D
:10089000402F612F8C2F90E01DDCB5DC84E6DF91CA
:1008A000CF911F910F910895FF920F931F93CF93B4
:1008B000DF93F82EC92FD62F6091539F7091549FCC
:1008C0008091559F40E08EDF0F2D1C2FC0E0CD178B
:1008D00039F0F80161918F018C2FCFDECF5FF7CF18
:1008E000DF91CF911F910F91FF908DCCE5E4FEE356
:1008F00030E020E080E041E050E09589907639F0EA
:10090000BA01022E01C0660F0A94EAF7862B2F5F08
:100910003F4F77962630310581F70895EF92FF9289
:100920000F931F93CF93DF93E1DFC82F8770C9F038
:10093000E12CC0FF02C094E1E92EF12CC2FF02C0FD
:1009400084E1F82ED0E0C1FDD4E110E000E02E2DCE
:100950004F2D6D2FC801BEDB0F5F1F4F09301105F2
:10096000B1F78C2F887351F040E0C5FD44E164E19C
:10097000C3FF60E080E0C4FD84E191DEDF91CF91B0
:100980001F910F91FF90EF903ECC2091003E30914F
:10099000013EC9019695879520FD07C08093003ED2
:1009A0009093013E8091003E089524EB9227F6CF6C
:1009B0000F931F93CF93DF93162F082FEC01E5DFE2
:1009C00083708330E1F389938C2F801B8117B8F3F8
:1009D000DF91CF911F910F910895FF920F931F9375
:1009E000CF93DF93082FF92EEB01142F642FCE0144
:1009F000DFDF902FDE01E02FFF2D21918D91281355
:100A00000BC08E2F891B8117C0F3888190E001965F
:100A100063E070E05DDA8883DF91CF911F910F91E1
:100A2000FF9008958091080483FB882780F908953A
:100A300094E0811116C0909326049091200492FDB9
:100A40000AC09FB7F89481110FC080913204877F4C
:100A5000809332049FBF8091010A8B7F8093010AAB
:100A6000089590932504E9CF809132048860F0CFF7
:100A70008C30F0F490E0FC01E259F04620812F3FE9
:100A8000B9F0FC01EE59F046E08130E2E39FF0015D
:100A90001124FC5F613069F421838A5A9046DC019D
:100AA0008C91E80FF11D8089613029F08860808B7E
:100AB00008952283F2CF877FFACF8EEF8093520181
:100AC0001092CF3E80915000897F846080935000C7
:100AD0008DE08093130480E0ABDF809100068E7F71
:100AE00080930006C4E4DFE961E08991C1DF8FE90A
:100AF000CA34D807C9F780915000816080935000B4
:100B0000889588ED91E084BF90930001FFCFBF925C
:100B1000CF92DF92EF92FF920F931F93CF93DF93C9
:100B2000B62ED72FC1E0C8278C2F8170F82EC09029
:100B3000539FD090549FE090559F40E08E2DB6017A
:100B400051DE4091509F5091519F6091529F8C2F48
:100B5000BFDD0B2D1D2FD0E0C0E0F80181918F018A
:100B60007ADD472F282FFF20C9F0CE01B3DA219676
:100B7000C730D10591F747DB68EB7BE080E090E080
:100B8000EFDA41E08E2DB601DF91CF911F910F91E9
:100B9000FF90EF90DF90CF90BF9024CE8C2F77DD29
:100BA000E6CFCF92DF92EF92CF93DF93D82FC62F6D
:100BB000C090539FD090549FE090559F40E08E2D61
:100BC000B60110DECD17D8F440914A9F50914B9F4B
:100BD00060914C9F80E07CDD40E060E08EE15FDD75
:100BE00012DB60ED77E080E090E0BADA41E08E2D34
:100BF000B601DF91CF91EF90DF90CF90F3CD409190
:100C00004D9F50914E9F60914F9FDC1730F0409167
:100C10004A9F50914B9F60914C9F80E059DD40E08E
:100C20006EE180E0DCCF6F927F928F92CF92DF9265
:100C3000EF921F93CF93DF93D82F3A01862E122F76
:100C4000C0E0C090539FD090549FE090559F682D76
:100C5000A3018D2F3DDDD7DA62E370E080E090E004
:100C60007FDA6E2DA6018D2F33DDCDDA62E370E0E1
:100C700080E090E075DACF5F1C13E9CFDF91CF9170
:100C80001F91EF90DF90CF908F907F906F9008959D
:100C90006F927F928F92CF92DF92EF923B01882EDC
:100CA00041E0A0DD62E370E080E090E059DAC090BE
:100CB000539FD090549FE090559F41E08E2DB601F8
:100CC00091DD62E370E080E090E04ADA41E0882D57
:100CD000B30188DD62E370E080E090E041DA41E05A
:100CE0008E2DB6017FDD62E370E080E090E0EF9052
:100CF000DF90CF908F907F906F9032CACF92DF922B
:100D0000EF92CF938091DA3E90910014891779F099
:100D1000A0E0B4E1E0E0F0E10FB622812370E9F752
:100D2000F8948C938DE984BF83E080830FBEC6E086
:100D3000C0904A9FD0904B9FE0904C9F8E2DB60163
:100D4000A7DFC150D9F7CF91EF90DF90CF900895F2
:100D50000F931F93CF93DF93D82F8B01C7E081E0D0
:100D6000DD2311F0C8E380E04091509F5091519FE6
:100D70006091529FADDC47DAB9DD982F9C2339F0A2
:100D80008FE39CE90197F1F700C00000F5CF8C23B9
:100D900041F4EFE3FCE93197F1F700C00000A6DD74
:100DA000F6CFD1111DC0823031F08430F9F081309E
:100DB00009F582E01CC0F8011082F80180814BDC4B
:100DC000AB0111E0682F8D2F83DC1DDA8FDD8C23C2
:100DD000B1F08FE39CE90197F1F700C00000F6CF76
:100DE000803149F3803229F3883021F481E0F80121
:100DF0008083E3CF40E050E080E010E0E3CF812F3C
:100E0000DF91CF911F910F910895BF92CF92DF9202
:100E1000EF92FF920F931F93CF93DF931F92CDB763
:100E2000DEB7182F7B01B42E87E0841710F487E01B
:100E3000B82E40E0B701812F72DC670100E0198213
:100E4000BE016F5F7F4F812F83DF811119C040E0AA
:100E5000B701812F64DC40914D9F50914E9F60916E
:100E60004F9F22E0812FDFDE802F0F90DF91CF9107
:100E70001F910F91FF90EF90DF90CF90BF9008955A
:100E8000F60191916F0189819813E1CF0F5F402F97
:100E9000B701812F44DC6CE271E080E090E060D922
:100EA0000B1568F240914A9F50914B9F60914C9F67
:100EB000D8CF6F927F928F929F92AF92BF92CF9234
:100EC000DF92EF92FF920F931F93CF93DF931F92C6
:100ED000CDB7DEB7D82EC62EB42E062F172FE62E8E
:100EE000F72E6090539F7090549F8090559FA62E30
:100EF000F70191907F0140E0882DB30173DC892DCB
:100F0000AADBAB01682F8D2DE3DB7DD960E971E0B1
:100F100080E090E025D9682DA3018D2DD9DB73D910
:100F200068EC70E080E090E01BD98E2D8C198B1559
:100F3000F8F21982BE016F5F7F4F8D2D09DF882384
:100F400031F0F80191918F018981981789F080E043
:100F50000F90DF91CF911F910F91FF90EF90DF9055
:100F6000CF90BF90AF909F908F907F906F9008959B
:100F7000682DA3018D2DACDB46D96AEF70E080E0CF
:100F800090E0EED8802F8A198B1598F281E0E0CF9F
:100F9000ADDC882339F08FE39CE90197F1F700C0BD
:100FA0000000F6CF08958F9381E080938D0A8FB76C
:100FB0008F93EF93FF93E0EDFEE39F9368948FEFA1
:100FC0000FC0E894848195818C5E9F4F84839583C4
:100FD000885E934010F08FEF03C0848395838EEF7B
:100FE0009081981B919390819F4F919390819F4FF7
:100FF000919390819F4F919326F39F91FF91EF9151
:101000008F918FBF8F9118951F920F920FB60F92ED
:1010100011242F933F934F935F936F937F938F93FD
:101020009F93AF93BF93CF93DF93EF93FF93C0E072
:10103000D6E0E091413EF091423E3097F1F01882C7
:101040003B858889998922852F7002C0969587955E
:101050002A95E2F7858796878485886084878485CA
:1010600082FF23C0848531FF1BC08260848780E1BA
:1010700090E080933F3E9093403EFF91EF91DF914F
:10108000CF91BF91AF919F918F917F916F915F9120
:101090004F913F912F910F900FBE0F901F90189579
:1010A0008D7F848788E090E0E4CF8081918126D98C
:1010B000E4CF1F920F920FB60F921124CF92DF92BE
:1010C000EF92FF922F933F934F935F936F937F9392
:1010D0008F939F93AF93BF93CF93DF93EF93FF9340
:1010E00081E0809353018091CF3E882309F492C020
:1010F0008FB7F894C090D43ED090D53EE090D63EC5
:10110000F090D73E8FBF80913F3E9091403E8871D6
:101110009927892B09F49FC080913B3E90913C3EDA
:101120000097A1F020913F3E3091403E41D98091FF
:101130003B3E90913C3E892B09F083C010923D3E8E
:1011400010923E3E10923F3E1092403E8091033EF0
:101150009091043EC81AD90A24E1C216D10408F4B9
:1011600059C044968093033E9093043E80913F3E45
:101170009091403E892B09F04DC0E0E0F6E080916F
:101180003F3E9091403E89799927892B09F042C0D2
:101190008091433E9091443EDC0112962D913C910A
:1011A000108E40EE20FD76C023FF71C048E2408FD4
:1011B00046E8468F1082138243E04387332720930B
:1011C0003D3E30933E3EA0913B3EB0913C3E109759
:1011D00009F463C082E0828784831F968D919C917D
:1011E000509751962D913C915297820F931F1A96CA
:1011F0002C911A972F7002C0880F991F2A95E2F739
:10120000848B958B84E090E080933F3E9093403EAA
:10121000CD0174D8FF91EF91DF91CF91BF91AF9144
:101220009F918F917F916F915F914F913F912F91FE
:10123000FF90EF90DF90CF900F900FBE0F901F9018
:10124000189582E080930A0684E090E080933F3E08
:101250009093403E7BCF80913F3E9091403E0297DD
:1012600009F074CF10923F3E1092403EC091433E31
:10127000D091443E209729F410923D3E10923E3E7C
:1012800065CFCE0195D80990D881C02DF3CF22FF2C
:10129000C1CF48E2408F168E8DCF21E02287148285
:1012A00021E030E020933F3E3093403EB2CF1F928A
:1012B0000F920FB60F9211248F939F9388E0809323
:1012C00009048091023E882331F088ED91E084BFCB
:1012D00090930001FFCF9F918F910F900FBE0F90C1
:1012E0001F901895CF93DF93CDB7DEB7AF97CDBFE3
:1012F000DEBF88ED90E084BF90936100E0E0F6E00F
:1013000083E582838AE0858380E2838381E0808332
:10131000109202028093030A9EEF9093260A909304
:10132000270A9BE09093000AE0E8FAE02DEF31E015
:1013300026A737A7118290E89283848781E1808372
:10134000789461E088E094DB61E089E091DB61E022
:1013500085E08EDB61E084E08BDB61E084E088DBAC
:1013600062E08AE085DB81E063DB809141018111ED
:10137000FCCF81E0809347018091433E9091443EB1
:1013800024E43FE9E5E4FEE304E010E0B4E08B2E62
:1013900044E1E42EF12C6AE070E057E6C52E55E0FA
:1013A000D52EA3E07A2EB4EF6B2E40E5A42EB12CFF
:1013B000D9014D919D01912C4C3028F4A42FB0E01F
:1013C000A85CB0469C90FE3309F07FC0DC0100971A
:1013D00009F072C01482CF011582968202831383B2
:1013E000992009F472C08286E18AF28A638B748B39
:1013F000C782D086718640912206509123064929E2
:10140000409322065093230642E35FE9A6E05A2E5A
:1014100090FE06C0DA014C90A42DB0E0BC5F8C9227
:1014200096945A944F5F5F4F5110F2CF6286A18A13
:10143000B28A638B748B77964FE92A34340709F0AC
:10144000B7CF8093433E9093443E809100148093A5
:10145000DA3E81E08093520199E1909350018093AC
:10146000CF3E412C512C3201E5E02E2EF12CE12C07
:1014700030904D9FB0914E9FB98FE0914F9FEA8F72
:101480003FA2B8A7E9A73AA6BBA7ECA73DA6BEA76F
:10149000EFA7EFEFE20DEA3008F5F0E0EF5AF54F75
:1014A000099428C05DC061C067C069C09DC0B7C055
:1014B000CFC0E6C018C1DA014D915C91119741157A
:1014C0005105C9F7EA17FB0709F4FFCFED93FC9329
:1014D000119714964C914F5F44837ECF4AE060E0B1
:1014E000C701ADD9082F10E0212C0115110509F411
:1014F0004AC015C02CE330E0C701B901D5D48C0136
:101500004F9720F0C901801B910B8C0121E040E036
:1015100060E0802F42D9012B09F508EC10E08FEF35
:10152000E81AF80AC801012E000CAA0BBB0B480EE2
:10153000591E6A1E7B1E80914A9F90914B9FA091DD
:101540004C9F89A39AA3ABA380914D9F90914E9FEE
:10155000A0914F9F8CA39DA3AEA34EC10EE1DECF01
:101560004AE060E0C70144D904C040E06AE0C70136
:1015700066D9082F10E0B9CF40E06AE0F3CF809140
:10158000DA3E877021F0239410E000E0C8CFC70155
:101590006AE570E089D420E040E03EE182319105C7
:1015A000A8F08432910578F020E048E034E18633F9
:1015B000910560F02EE140E036E08834910530F08E
:1015C000422D2EE102C020E048E030E062E170E010
:1015D0006BD48C5C9F4FFC018491632F90E07AD593
:1015E00012D602E310E09BCF8091DA3E81FDCBCF93
:1015F000C70163E070E058D4182F20E040E060E0BD
:1016000080E0CBD820E044E16AE0812F90E062D511
:101610001D5F1231B8F3F7D506E910E080CF809155
:10162000DA3E82FDB0CF20E04FEF64E18CE0B5D828
:1016300001E010E020E042E060E0C8014BD50D5F22
:101640001F4F03311105B1F7DED50AEF10E067CF68
:101650008091DA3E80FD97CF1E2D117020E040E092
:1016600060E08AE09AD82FEF40E060E0812F90E0C0
:1016700031D51E5F1231B8F3C6D504E610E04FCF66
:10168000C70169E070E010D46C0120E040E060E048
:1016900080E083D8912C79E0A72EB12C892C880C7E
:1016A000890CC601B50100D48C01FC01E15BFF4F40
:1016B0008491282D40E0692D90E00CD5F801EA5B7B
:1016C000FF4FE491282D40E060E08E2F90E002D59E
:1016D0009394FFEFCF1ADF0A27E09212DFCF93D562
:1016E0000BE410E01CCFC7016FE374E1DDD38C0184
:1016F00020E040E060E080E050D8C8010E311105E4
:1017000058F465E070E0D0D360FDB6CF20E040E053
:1017100060E08AE042D8B0CF4E978F3E43E1940715
:1017200000F567E372E0C0D3C62E6FE370E0BCD370
:10173000DD24D394D60E10E000E00C1540F420E038
:1017400040E06AE0C801C6D40F5F1F4FF6CF10E03B
:1017500020E040E06AE0812F9AD71F5F1D15C0F39B
:101760008BCF21E040E06EE180E017D886CFF9EC26
:10177000EF16F104E8F121EBE21624E0F20608F09E
:1017800062C0B4D8F82E04DCFF2009F4B3C08FB7D0
:10179000F8944091D43E5091D53E6091D63E7091E0
:1017A000D73E8FBF8091003E9091013E9C0124273F
:1017B00035272093003E3093013E8417950731F47E
:1017C00081EE9CEA8093003E9093013E94E0F916EE
:1017D00009F477C19F1508F461C0A1E0FA1609F475
:1017E0008BC0B2E0FB1609F4ECC0412C512C320145
:1017F000F12CE12C0A501109101611060CF01DC332
:101800008DD88FE39CE90197F1F700C000000AD959
:10181000813081F362E370E080E090E0A1D462E384
:10182000E62EF12CFFD88111A2CFAFE1BEE41197D3
:10183000F1F700C00000B5E0EB0EF11CE5EDEE168F
:10184000E7E0FE0679F760914D9F70914E9F809181
:101850004F9F41E0C7D7E6D8811107C08FE19EE4D2
:101860000197F1F700C00000F6CF93E041E039E1C5
:101870002EEF409352013093500180915000897FA8
:10188000846080935000809150008160809350006C
:10189000889520935201915061F70FD9E0E1FE162F
:1018A00009F45FC2F0E2FF1609F480C128E0F212E9
:1018B0009CCF6CD76AE0CE010B967AD84AE0BE0185
:1018C0006F5F7F4FCE010B9688D8B12CC12CEE24D0
:1018D000E394DD24D39483E0F82E60904A9F7090C7
:1018E0004B9F80904C9FD1106DC2E1107CC26B2D3C
:1018F0008C2D2DC2239479CF49D758ECD52E40900A
:10190000539F5090549F6090559F3FD88770B82E3A
:1019100047E0C42E882E912CF12CE12C7E2C40E047
:10192000862DB2015FD720E04EE160E0C401D2D342
:1019300020E04EE160E08B2DAAD620E040E06EE191
:10194000C701C8D320E040E06EE18E2DA0D65BD465
:10195000A12C45E0A40ECAD7882351F0B714D9F0C2
:1019600060914D9F70914E9F80914F9F91D9A7C0DC
:101970008FE19EE40197F1F700C00000AD1448F339
:101980009FEFE91AF90AA9E0EA16F10439F6CA94B8
:10199000C110C2CFE5CFAAD7882339F0EFE1FEE42A
:1019A0003197F1F700C00000F6CFFCEEDF0E28E221
:1019B000D212ABCF8091DA3E8E7F8093DA3E9ED9F1
:1019C0007EC0E4D667E0CE010196F2D76091539FC6
:1019D0007091549F8091559F40E004D7CE010196AD
:1019E0007C01D12CD7016D917D018D2D46D6D394EC
:1019F000B7E0DB12F7CF07D468EB7BE080E090E044
:101A0000AFD360E0CE0101964FD73AE0C32EF12C60
:101A10006DD7E82EE11009C069D7E82EEFE3FCE9A5
:101A20003197F1F700C00000F5CF78D7F4E0EF165A
:101A300081F1FE1528F121E0E21681F142E0E41681
:101A400081F1E12CD12CA4DADD2069F1E1E0F0E0B4
:101A5000EC0FFD1FEF0DF11D80818E1124C0F3945A
:101A60006F2DCE01019620D764EF71E080E090E009
:101A700077D3B7E0FB12CCCF8091DA3E8B7F9DCF3E
:101A800080E1E81671F090E2E91641F0A8E0EA1270
:101A9000D8CFEE24E394DD24D394D5CF22E0E22EF8
:101AA000FACFE12CF8CFCA946DA57EA58FA5F0D80A
:101AB00060E0CE010196F8D6F12CC110A9CF60D616
:101AC00094CE64D66AE0FE0131966F01CF0170D7E3
:101AD00093E0F92E4090539F5090549F6090559FF3
:101AE000EC2C56014601D4018D914D01B4D540E056
:101AF00079D689D360E971E080E090E031D341E0AC
:101B0000862DB2016FD668EC70E080E090E028D3BB
:101B1000882D8C198F1538F3E9D6982E911009C0AD
:101B2000E5D6982EEFE3FCE93197F1F700C000000D
:101B3000F5CFF4D6DBD6882339F08FE39CE9019703
:101B4000F1F700C00000F6CFD5018D915D01813025
:101B500031F150F0823009F003CF41E0941651F09A
:101B600080E29812FDCE06C0B2E09B1619F0E0E1CB
:101B70009E12F6CE41E0862DB20134D664EF71E0BC
:101B800080E090E0EDD28A2D8E198F1528F2F39423
:101B90009AE0F912A6CF8091DA3E8D7F0ECFF4E065
:101BA0009F1641F328E09212DBCEE4CFEFD5A1E0FF
:101BB000AF8BB8ECB88FEE24E394FF24F3941D8E22
:101BC0001C8E8090539F9090549FA090559FDDD67F
:101BD0008F708D8B8930D8F7DD24D394DE24CC240C
:101BE000C394CF24F7E0FB8F1E8AB12C90E08F8F37
:101BF00098A3712C612C462C552453945C24F1102D
:101C000001C0512CEE2009F444C0A1E0AD25AE8FF7
:101C100040E08A2DB401E6D5BE8DBB2359F020E00B
:101C20004EE160E08F8D98A155D220E040E06EE15A
:101C3000C30150D2552051F020E04EE160E08D8983
:101C400026D520E040E06EE1842D21D5DCD2512C58
:101C5000DD2011F0C11053C049D6EE20E1F0D110C3
:101C600009C0982F977009F4F9C0BB24B394ED898B
:101C7000E411B12CFF2011F1C11043C0DF2C0FC0C3
:101C8000E11003C0FF2009F460C0EF89EF5FEF8B24
:101C90009ECF1E8EBDCFFF2079F0C11008C0887383
:101CA00009F457C0F1E0FE8B2D8924111E8AD11052
:101CB000D2C0CC24C39406C0DD2021F0C110C7C01F
:101CC000DD24D3948FE19EE40197F1F700C000007A
:101CD00095E0590EA88D5A1608F4BACFDD2011F000
:101CE000C1100DC0BFEF6B1A7B0AE9E06E167104DC
:101CF00009F081CFFB8DF150FB8FF1117ACFEE20EF
:101D000049F0EB2CB11027C022E04FA158A569A5DE
:101D100080E089D7FF2051F0FE884E8941111EC016
:101D200022E0432D598D6A8D81E07DD731D99D8D7B
:101D3000AC8D9A130AC0E11002C0FF2031F0B88DBB
:101D4000B451B88FB83209F09BCF6D8D8C8D29D7E7
:101D5000B6CEC12CB7CF2F892C8FDCCF8F898D8F3A
:101D6000E5CF14D567E0CE010B9622D647E0BE0141
:101D70006F5F7F4FCE010B9630D6BE01655F7F4F00
:101D800080E0C5D647E0BE01655F7F4F80E03DD86B
:101D9000E82E6CE271E080E090E0E2D1FF24F39461
:101DA000FE0CBE016F5F7F4F81E0B1D64F2D4830F2
:101DB00008F047E0BE016F5F7F4F81E026D8682FB3
:101DC0008E2DC5CF4F2DBE01655F7F4F80E071D84E
:101DD000D82E882321F121E0682DA30180E023D7AC
:101DE000CF2CEE2081F04F2DBE016F5F7F4F81E041
:101DF00060D8E82E8823D1F021E049A15AA16BA137
:101E000081E011D7BF2CBC1072CDD11003C0EE20E1
:101E100009F46DCDF394EAE0FE1265CD68CD22E0C1
:101E20004CA15DA16EA180E0FED6DBCF22E04AA5E9
:101E30005BA56CA581E0F7D6E6CFF1EA4F16FBEB88
:101E40005F06FDE06F06710408F423CB26CDE11098
:101E500058CFF12C6BCFE11054CF5ECFF1101DCFD6
:101E6000DF2C30CFEBEDFEE3158285E09EE3868329
:101E70009783148615861686178681E08387808768
:101E8000118682E0828786E390E08283938382E1F9
:101E900090E08083918384E0848384E294E0808B6B
:101EA000918B88E0828B0895AA1BBB1B51E107C070
:101EB000AA1FBB1FA617B70710F0A61BB70B881FDA
:101EC000991F5A95A9F780959095BC01CD01089569
:101ED00097FB072E16F4009406D077FD08D0E4DFB8
:101EE00007FC05D03EF4909581959F4F089570951D
:101EF00061957F4F08950FD0A59F900DB49F900DD1
:101F0000A49F800D911D11240895EE0FFF1F0590D1
:101F1000F491E02D0994A29FB001B39FC001A39F4B
:101F200001D0B29F700D811D1124911D0895F89468
:021F3000FFCFE1
:101F320014151617313001020408000010200000A9
:101F42000000000102030706001E001E00001E0C16
:101F5200000000000405060703020100010203005D
:101F6200000000000101010100000000102040807B
:081F7200080402010204080149
:021F7A00E1ACD8
:00000001FF
